{
  "_format": "hh-sol-artifact-1",
  "contractName": "nft",
  "sourceName": "contracts/nft.sol",
  "abi": [
    {
      "inputs": [],
      "stateMutability": "nonpayable",
      "type": "constructor"
    },
    {
      "inputs": [
        {
          "internalType": "address",
          "name": "sender",
          "type": "address"
        },
        {
          "internalType": "uint256",
          "name": "tokenId",
          "type": "uint256"
        },
        {
          "internalType": "address",
          "name": "owner",
          "type": "address"
        }
      ],
      "name": "ERC721IncorrectOwner",
      "type": "error"
    },
    {
      "inputs": [
        {
          "internalType": "address",
          "name": "operator",
          "type": "address"
        },
        {
          "internalType": "uint256",
          "name": "tokenId",
          "type": "uint256"
        }
      ],
      "name": "ERC721InsufficientApproval",
      "type": "error"
    },
    {
      "inputs": [
        {
          "internalType": "address",
          "name": "approver",
          "type": "address"
        }
      ],
      "name": "ERC721InvalidApprover",
      "type": "error"
    },
    {
      "inputs": [
        {
          "internalType": "address",
          "name": "operator",
          "type": "address"
        }
      ],
      "name": "ERC721InvalidOperator",
      "type": "error"
    },
    {
      "inputs": [
        {
          "internalType": "address",
          "name": "owner",
          "type": "address"
        }
      ],
      "name": "ERC721InvalidOwner",
      "type": "error"
    },
    {
      "inputs": [
        {
          "internalType": "address",
          "name": "receiver",
          "type": "address"
        }
      ],
      "name": "ERC721InvalidReceiver",
      "type": "error"
    },
    {
      "inputs": [
        {
          "internalType": "address",
          "name": "sender",
          "type": "address"
        }
      ],
      "name": "ERC721InvalidSender",
      "type": "error"
    },
    {
      "inputs": [
        {
          "internalType": "uint256",
          "name": "tokenId",
          "type": "uint256"
        }
      ],
      "name": "ERC721NonexistentToken",
      "type": "error"
    },
    {
      "inputs": [
        {
          "internalType": "address",
          "name": "owner",
          "type": "address"
        }
      ],
      "name": "OwnableInvalidOwner",
      "type": "error"
    },
    {
      "inputs": [
        {
          "internalType": "address",
          "name": "account",
          "type": "address"
        }
      ],
      "name": "OwnableUnauthorizedAccount",
      "type": "error"
    },
    {
      "anonymous": false,
      "inputs": [
        {
          "indexed": true,
          "internalType": "address",
          "name": "owner",
          "type": "address"
        },
        {
          "indexed": true,
          "internalType": "address",
          "name": "approved",
          "type": "address"
        },
        {
          "indexed": true,
          "internalType": "uint256",
          "name": "tokenId",
          "type": "uint256"
        }
      ],
      "name": "Approval",
      "type": "event"
    },
    {
      "anonymous": false,
      "inputs": [
        {
          "indexed": true,
          "internalType": "address",
          "name": "owner",
          "type": "address"
        },
        {
          "indexed": true,
          "internalType": "address",
          "name": "operator",
          "type": "address"
        },
        {
          "indexed": false,
          "internalType": "bool",
          "name": "approved",
          "type": "bool"
        }
      ],
      "name": "ApprovalForAll",
      "type": "event"
    },
    {
      "anonymous": false,
      "inputs": [
        {
          "indexed": false,
          "internalType": "uint256",
          "name": "_fromTokenId",
          "type": "uint256"
        },
        {
          "indexed": false,
          "internalType": "uint256",
          "name": "_toTokenId",
          "type": "uint256"
        }
      ],
      "name": "BatchMetadataUpdate",
      "type": "event"
    },
    {
      "anonymous": false,
      "inputs": [
        {
          "indexed": false,
          "internalType": "uint256",
          "name": "_tokenId",
          "type": "uint256"
        }
      ],
      "name": "MetadataUpdate",
      "type": "event"
    },
    {
      "anonymous": false,
      "inputs": [
        {
          "indexed": true,
          "internalType": "address",
          "name": "previousOwner",
          "type": "address"
        },
        {
          "indexed": true,
          "internalType": "address",
          "name": "newOwner",
          "type": "address"
        }
      ],
      "name": "OwnershipTransferred",
      "type": "event"
    },
    {
      "anonymous": false,
      "inputs": [
        {
          "indexed": true,
          "internalType": "address",
          "name": "from",
          "type": "address"
        },
        {
          "indexed": true,
          "internalType": "address",
          "name": "to",
          "type": "address"
        },
        {
          "indexed": true,
          "internalType": "uint256",
          "name": "tokenId",
          "type": "uint256"
        }
      ],
      "name": "Transfer",
      "type": "event"
    },
    {
      "inputs": [],
      "name": "BuurnPrice",
      "outputs": [
        {
          "internalType": "uint256",
          "name": "",
          "type": "uint256"
        }
      ],
      "stateMutability": "view",
      "type": "function"
    },
    {
      "inputs": [],
      "name": "NumberOfTokens",
      "outputs": [
        {
          "internalType": "uint256",
          "name": "",
          "type": "uint256"
        }
      ],
      "stateMutability": "view",
      "type": "function"
    },
    {
      "inputs": [],
      "name": "Price",
      "outputs": [
        {
          "internalType": "uint256",
          "name": "",
          "type": "uint256"
        }
      ],
      "stateMutability": "view",
      "type": "function"
    },
    {
      "inputs": [
        {
          "internalType": "address",
          "name": "to",
          "type": "address"
        },
        {
          "internalType": "uint256",
          "name": "tokenId",
          "type": "uint256"
        }
      ],
      "name": "approve",
      "outputs": [],
      "stateMutability": "nonpayable",
      "type": "function"
    },
    {
      "inputs": [
        {
          "internalType": "address",
          "name": "owner",
          "type": "address"
        }
      ],
      "name": "balanceOf",
      "outputs": [
        {
          "internalType": "uint256",
          "name": "",
          "type": "uint256"
        }
      ],
      "stateMutability": "view",
      "type": "function"
    },
    {
      "inputs": [],
      "name": "burn",
      "outputs": [],
      "stateMutability": "payable",
      "type": "function"
    },
    {
      "inputs": [
        {
          "internalType": "address",
          "name": "",
          "type": "address"
        },
        {
          "internalType": "uint256",
          "name": "",
          "type": "uint256"
        }
      ],
      "name": "countOfTokenId",
      "outputs": [
        {
          "internalType": "uint256",
          "name": "",
          "type": "uint256"
        }
      ],
      "stateMutability": "view",
      "type": "function"
    },
    {
      "inputs": [],
      "name": "counter",
      "outputs": [
        {
          "internalType": "uint256",
          "name": "",
          "type": "uint256"
        }
      ],
      "stateMutability": "view",
      "type": "function"
    },
    {
      "inputs": [
        {
          "internalType": "uint256",
          "name": "tokenId",
          "type": "uint256"
        }
      ],
      "name": "getApproved",
      "outputs": [
        {
          "internalType": "address",
          "name": "",
          "type": "address"
        }
      ],
      "stateMutability": "view",
      "type": "function"
    },
    {
      "inputs": [],
      "name": "getListPrice",
      "outputs": [
        {
          "internalType": "uint256",
          "name": "",
          "type": "uint256"
        }
      ],
      "stateMutability": "view",
      "type": "function"
    },
    {
      "inputs": [
        {
          "internalType": "address",
          "name": "owner",
          "type": "address"
        },
        {
          "internalType": "address",
          "name": "operator",
          "type": "address"
        }
      ],
      "name": "isApprovedForAll",
      "outputs": [
        {
          "internalType": "bool",
          "name": "",
          "type": "bool"
        }
      ],
      "stateMutability": "view",
      "type": "function"
    },
    {
      "inputs": [
        {
          "internalType": "string",
          "name": "_uri",
          "type": "string"
        }
      ],
      "name": "mint",
      "outputs": [],
      "stateMutability": "payable",
      "type": "function"
    },
    {
      "inputs": [],
      "name": "name",
      "outputs": [
        {
          "internalType": "string",
          "name": "",
          "type": "string"
        }
      ],
      "stateMutability": "view",
      "type": "function"
    },
    {
      "inputs": [],
      "name": "owner",
      "outputs": [
        {
          "internalType": "address",
          "name": "",
          "type": "address"
        }
      ],
      "stateMutability": "view",
      "type": "function"
    },
    {
      "inputs": [
        {
          "internalType": "uint256",
          "name": "tokenId",
          "type": "uint256"
        }
      ],
      "name": "ownerOf",
      "outputs": [
        {
          "internalType": "address",
          "name": "",
          "type": "address"
        }
      ],
      "stateMutability": "view",
      "type": "function"
    },
    {
      "inputs": [],
      "name": "renounceOwnership",
      "outputs": [],
      "stateMutability": "nonpayable",
      "type": "function"
    },
    {
      "inputs": [
        {
          "internalType": "address",
          "name": "from",
          "type": "address"
        },
        {
          "internalType": "address",
          "name": "to",
          "type": "address"
        },
        {
          "internalType": "uint256",
          "name": "tokenId",
          "type": "uint256"
        }
      ],
      "name": "safeTransferFrom",
      "outputs": [],
      "stateMutability": "nonpayable",
      "type": "function"
    },
    {
      "inputs": [
        {
          "internalType": "address",
          "name": "from",
          "type": "address"
        },
        {
          "internalType": "address",
          "name": "to",
          "type": "address"
        },
        {
          "internalType": "uint256",
          "name": "tokenId",
          "type": "uint256"
        },
        {
          "internalType": "bytes",
          "name": "data",
          "type": "bytes"
        }
      ],
      "name": "safeTransferFrom",
      "outputs": [],
      "stateMutability": "nonpayable",
      "type": "function"
    },
    {
      "inputs": [
        {
          "internalType": "address",
          "name": "operator",
          "type": "address"
        },
        {
          "internalType": "bool",
          "name": "approved",
          "type": "bool"
        }
      ],
      "name": "setApprovalForAll",
      "outputs": [],
      "stateMutability": "nonpayable",
      "type": "function"
    },
    {
      "inputs": [
        {
          "internalType": "bytes4",
          "name": "interfaceId",
          "type": "bytes4"
        }
      ],
      "name": "supportsInterface",
      "outputs": [
        {
          "internalType": "bool",
          "name": "",
          "type": "bool"
        }
      ],
      "stateMutability": "view",
      "type": "function"
    },
    {
      "inputs": [],
      "name": "symbol",
      "outputs": [
        {
          "internalType": "string",
          "name": "",
          "type": "string"
        }
      ],
      "stateMutability": "view",
      "type": "function"
    },
    {
      "inputs": [
        {
          "internalType": "uint256",
          "name": "",
          "type": "uint256"
        }
      ],
      "name": "tokenOwner",
      "outputs": [
        {
          "internalType": "address",
          "name": "",
          "type": "address"
        }
      ],
      "stateMutability": "view",
      "type": "function"
    },
    {
      "inputs": [
        {
          "internalType": "uint256",
          "name": "tokenId",
          "type": "uint256"
        }
      ],
      "name": "tokenURI",
      "outputs": [
        {
          "internalType": "string",
          "name": "",
          "type": "string"
        }
      ],
      "stateMutability": "view",
      "type": "function"
    },
    {
      "inputs": [],
      "name": "totalSupply",
      "outputs": [
        {
          "internalType": "uint256",
          "name": "",
          "type": "uint256"
        }
      ],
      "stateMutability": "view",
      "type": "function"
    },
    {
      "inputs": [
        {
          "internalType": "address",
          "name": "from",
          "type": "address"
        },
        {
          "internalType": "address",
          "name": "to",
          "type": "address"
        },
        {
          "internalType": "uint256",
          "name": "tokenId",
          "type": "uint256"
        }
      ],
      "name": "transferFrom",
      "outputs": [],
      "stateMutability": "nonpayable",
      "type": "function"
    },
    {
      "inputs": [
        {
          "internalType": "address",
          "name": "newOwner",
          "type": "address"
        }
      ],
      "name": "transferOwnership",
      "outputs": [],
      "stateMutability": "nonpayable",
      "type": "function"
    }
  ],
  "bytecode": "0x608060405266038d7ea4c68000600a553480156200001c57600080fd5b50336040518060400160405280600981526020017f5370696465726d616e00000000000000000000000000000000000000000000008152506040518060400160405280600681526020017f537069646572000000000000000000000000000000000000000000000000000081525081600090816200009b91906200047d565b508060019081620000ad91906200047d565b505050600073ffffffffffffffffffffffffffffffffffffffff168173ffffffffffffffffffffffffffffffffffffffff1603620001255760006040517f1e4fbdf70000000000000000000000000000000000000000000000000000000081526004016200011c9190620005a9565b60405180910390fd5b62000136816200013d60201b60201c565b50620005c6565b6000600760009054906101000a900473ffffffffffffffffffffffffffffffffffffffff16905081600760006101000a81548173ffffffffffffffffffffffffffffffffffffffff021916908373ffffffffffffffffffffffffffffffffffffffff1602179055508173ffffffffffffffffffffffffffffffffffffffff168173ffffffffffffffffffffffffffffffffffffffff167f8be0079c531659141344cd1fd0a4f28419497f9722a3daafe3b4186f6b6457e060405160405180910390a35050565b600081519050919050565b7f4e487b7100000000000000000000000000000000000000000000000000000000600052604160045260246000fd5b7f4e487b7100000000000000000000000000000000000000000000000000000000600052602260045260246000fd5b600060028204905060018216806200028557607f821691505b6020821081036200029b576200029a6200023d565b5b50919050565b60008190508160005260206000209050919050565b60006020601f8301049050919050565b600082821b905092915050565b600060088302620003057fffffffffffffffffffffffffffffffffffffffffffffffffffffffffffffffff82620002c6565b620003118683620002c6565b95508019841693508086168417925050509392505050565b6000819050919050565b6000819050919050565b60006200035e62000358620003528462000329565b62000333565b62000329565b9050919050565b6000819050919050565b6200037a836200033d565b62000392620003898262000365565b848454620002d3565b825550505050565b600090565b620003a96200039a565b620003b68184846200036f565b505050565b5b81811015620003de57620003d26000826200039f565b600181019050620003bc565b5050565b601f8211156200042d57620003f781620002a1565b6200040284620002b6565b8101602085101562000412578190505b6200042a6200042185620002b6565b830182620003bb565b50505b505050565b600082821c905092915050565b6000620004526000198460080262000432565b1980831691505092915050565b60006200046d83836200043f565b9150826002028217905092915050565b620004888262000203565b67ffffffffffffffff811115620004a457620004a36200020e565b5b620004b082546200026c565b620004bd828285620003e2565b600060209050601f831160018114620004f55760008415620004e0578287015190505b620004ec85826200045f565b8655506200055c565b601f1984166200050586620002a1565b60005b828110156200052f5784890151825560018201915060208501945060208101905062000508565b868310156200054f57848901516200054b601f8916826200043f565b8355505b6001600288020188555050505b505050505050565b600073ffffffffffffffffffffffffffffffffffffffff82169050919050565b6000620005918262000564565b9050919050565b620005a38162000584565b82525050565b6000602082019050620005c0600083018462000598565b92915050565b6131dd80620005d66000396000f3fe6080604052600436106101815760003560e01c806370f9b3bb116100d1578063a22cb4651161008a578063d85d3d2711610064578063d85d3d2714610565578063e776496614610581578063e985e9c5146105be578063f2fde38b146105fb57610181565b8063a22cb465146104d6578063b88d4fde146104ff578063c87b56dd1461052857610181565b806370f9b3bb146103e8578063715018a6146104135780638da5cb5b1461042a57806395d89b411461045557806396b797ea146104805780639dfde201146104ab57610181565b806323b872dd1161013e57806361bc221a1161011857806361bc221a146103185780636352211e1461034357806368f1945f1461038057806370a08231146103ab57610181565b806323b872dd146102bc57806342842e0e146102e557806344df8e701461030e57610181565b806301ffc9a71461018657806306fdde03146101c3578063081812fc146101ee578063095ea7b31461022b57806318160ddd146102545780631caaa4871461027f575b600080fd5b34801561019257600080fd5b506101ad60048036038101906101a891906122ce565b610624565b6040516101ba9190612316565b60405180910390f35b3480156101cf57600080fd5b506101d8610685565b6040516101e591906123c1565b60405180910390f35b3480156101fa57600080fd5b5061021560048036038101906102109190612419565b610717565b6040516102229190612487565b60405180910390f35b34801561023757600080fd5b50610252600480360381019061024d91906124ce565b610733565b005b34801561026057600080fd5b50610269610749565b604051610276919061251d565b60405180910390f35b34801561028b57600080fd5b506102a660048036038101906102a19190612419565b61074f565b6040516102b39190612487565b60405180910390f35b3480156102c857600080fd5b506102e360048036038101906102de9190612538565b610782565b005b3480156102f157600080fd5b5061030c60048036038101906103079190612538565b610884565b005b6103166108a4565b005b34801561032457600080fd5b5061032d610ab4565b60405161033a919061251d565b60405180910390f35b34801561034f57600080fd5b5061036a60048036038101906103659190612419565b610aba565b6040516103779190612487565b60405180910390f35b34801561038c57600080fd5b50610395610acc565b6040516103a2919061251d565b60405180910390f35b3480156103b757600080fd5b506103d260048036038101906103cd919061258b565b610ad6565b6040516103df919061251d565b60405180910390f35b3480156103f457600080fd5b506103fd610b90565b60405161040a919061251d565b60405180910390f35b34801561041f57600080fd5b50610428610c08565b005b34801561043657600080fd5b5061043f610c1c565b60405161044c9190612487565b60405180910390f35b34801561046157600080fd5b5061046a610c46565b60405161047791906123c1565b60405180910390f35b34801561048c57600080fd5b50610495610cd8565b6040516104a2919061251d565b60405180910390f35b3480156104b757600080fd5b506104c0610d27565b6040516104cd919061251d565b60405180910390f35b3480156104e257600080fd5b506104fd60048036038101906104f891906125e4565b610d7b565b005b34801561050b57600080fd5b5061052660048036038101906105219190612759565b610d91565b005b34801561053457600080fd5b5061054f600480360381019061054a9190612419565b610dae565b60405161055c91906123c1565b60405180910390f35b61057f600480360381019061057a919061283c565b610ec1565b005b34801561058d57600080fd5b506105a860048036038101906105a391906124ce565b61105c565b6040516105b5919061251d565b60405180910390f35b3480156105ca57600080fd5b506105e560048036038101906105e09190612889565b61108d565b6040516105f29190612316565b60405180910390f35b34801561060757600080fd5b50610622600480360381019061061d919061258b565b611121565b005b6000634906490660e01b7bffffffffffffffffffffffffffffffffffffffffffffffffffffffff1916827bffffffffffffffffffffffffffffffffffffffffffffffffffffffff1916148061067e575061067d826111a7565b5b9050919050565b606060008054610694906128f8565b80601f01602080910402602001604051908101604052809291908181526020018280546106c0906128f8565b801561070d5780601f106106e25761010080835404028352916020019161070d565b820191906000526020600020905b8154815290600101906020018083116106f057829003601f168201915b5050505050905090565b600061072282611289565b5061072c82611311565b9050919050565b610745828261074061134e565b611356565b5050565b60095481565b600b6020528060005260406000206000915054906101000a900473ffffffffffffffffffffffffffffffffffffffff1681565b600073ffffffffffffffffffffffffffffffffffffffff168273ffffffffffffffffffffffffffffffffffffffff16036107f45760006040517f64a0ae920000000000000000000000000000000000000000000000000000000081526004016107eb9190612487565b60405180910390fd5b6000610808838361080361134e565b611368565b90508373ffffffffffffffffffffffffffffffffffffffff168173ffffffffffffffffffffffffffffffffffffffff161461087e578382826040517f64283d7b00000000000000000000000000000000000000000000000000000000815260040161087593929190612929565b60405180910390fd5b50505050565b61089f83838360405180602001604052806000815250610d91565b505050565b6000600c60003373ffffffffffffffffffffffffffffffffffffffff1673ffffffffffffffffffffffffffffffffffffffff1681526020019081526020016000208054905011610929576040517f08c379a0000000000000000000000000000000000000000000000000000000008152600401610920906129d2565b60405180910390fd5b6000600c60003373ffffffffffffffffffffffffffffffffffffffff1673ffffffffffffffffffffffffffffffffffffffff1681526020019081526020016000208054905090506000600c60003373ffffffffffffffffffffffffffffffffffffffff1673ffffffffffffffffffffffffffffffffffffffff1681526020019081526020016000206001836109be9190612a21565b815481106109cf576109ce612a55565b5b90600052602060002001549050600960008154809291906109ef90612a84565b91905055506109fd81611582565b600c60003373ffffffffffffffffffffffffffffffffffffffff1673ffffffffffffffffffffffffffffffffffffffff168152602001908152602001600020805480610a4c57610a4b612aad565b5b600190038181906000526020600020016000905590553373ffffffffffffffffffffffffffffffffffffffff166108fc610a84610d27565b9081150290604051600060405180830381858888f19350505050158015610aaf573d6000803e3d6000fd5b505050565b60085481565b6000610ac582611289565b9050919050565b6000600a54905090565b60008073ffffffffffffffffffffffffffffffffffffffff168273ffffffffffffffffffffffffffffffffffffffff1603610b495760006040517f89c62b64000000000000000000000000000000000000000000000000000000008152600401610b409190612487565b60405180910390fd5b600360008373ffffffffffffffffffffffffffffffffffffffff1673ffffffffffffffffffffffffffffffffffffffff168152602001908152602001600020549050919050565b60008060095403610ba45760009050610c05565b60006001600954610bb59190612a21565b905060008103610bce57655af3107a4000915050610c05565b6000611f40600283610be09190612c1c565b670de0b6b3a7640000610bf39190612c67565b610bfd9190612cd8565b905080925050505b90565b610c10611608565b610c1a600061168f565b565b6000600760009054906101000a900473ffffffffffffffffffffffffffffffffffffffff16905090565b606060018054610c55906128f8565b80601f0160208091040260200160405190810160405280929190818152602001828054610c81906128f8565b8015610cce5780601f10610ca357610100808354040283529160200191610cce565b820191906000526020600020905b815481529060010190602001808311610cb157829003601f168201915b5050505050905090565b600080600c60003373ffffffffffffffffffffffffffffffffffffffff1673ffffffffffffffffffffffffffffffffffffffff1681526020019081526020016000208054905090508091505090565b60008060095403610d4057655af3107a40009050610d78565b6000611f406002600954610d549190612c1c565b670de0b6b3a7640000610d679190612c67565b610d719190612cd8565b9050809150505b90565b610d8d610d8661134e565b8383611755565b5050565b610d9c848484610782565b610da8848484846118c4565b50505050565b6060610db982611289565b506000600660008481526020019081526020016000208054610dda906128f8565b80601f0160208091040260200160405190810160405280929190818152602001828054610e06906128f8565b8015610e535780601f10610e2857610100808354040283529160200191610e53565b820191906000526020600020905b815481529060010190602001808311610e3657829003601f168201915b505050505090506000610e64611a7b565b90506000815103610e79578192505050610ebc565b600082511115610eae578082604051602001610e96929190612d45565b60405160208183030381529060405292505050610ebc565b610eb784611a92565b925050505b919050565b6000610ecb610d27565b9050803414610f0f576040517f08c379a0000000000000000000000000000000000000000000000000000000008152600401610f0690612db5565b60405180910390fd5b60086000815480929190610f2290612dd5565b919050555060096000815480929190610f3a90612dd5565b9190505550610f4b33600854611afb565b610f9b60085484848080601f016020809104026020016040519081016040528093929190818152602001838380828437600081840152601f19601f82011690508083019250505050505050611bf4565b33600b6000600854815260200190815260200160002060006101000a81548173ffffffffffffffffffffffffffffffffffffffff021916908373ffffffffffffffffffffffffffffffffffffffff160217905550600c60003373ffffffffffffffffffffffffffffffffffffffff1673ffffffffffffffffffffffffffffffffffffffff1681526020019081526020016000206008549080600181540180825580915050600190039060005260206000200160009091909190915055505050565b600c602052816000526040600020818154811061107857600080fd5b90600052602060002001600091509150505481565b6000600560008473ffffffffffffffffffffffffffffffffffffffff1673ffffffffffffffffffffffffffffffffffffffff16815260200190815260200160002060008373ffffffffffffffffffffffffffffffffffffffff1673ffffffffffffffffffffffffffffffffffffffff16815260200190815260200160002060009054906101000a900460ff16905092915050565b611129611608565b600073ffffffffffffffffffffffffffffffffffffffff168173ffffffffffffffffffffffffffffffffffffffff160361119b5760006040517f1e4fbdf70000000000000000000000000000000000000000000000000000000081526004016111929190612487565b60405180910390fd5b6111a48161168f565b50565b60007f80ac58cd000000000000000000000000000000000000000000000000000000007bffffffffffffffffffffffffffffffffffffffffffffffffffffffff1916827bffffffffffffffffffffffffffffffffffffffffffffffffffffffff1916148061127257507f5b5e139f000000000000000000000000000000000000000000000000000000007bffffffffffffffffffffffffffffffffffffffffffffffffffffffff1916827bffffffffffffffffffffffffffffffffffffffffffffffffffffffff1916145b80611282575061128182611c50565b5b9050919050565b60008061129583611cba565b9050600073ffffffffffffffffffffffffffffffffffffffff168173ffffffffffffffffffffffffffffffffffffffff160361130857826040517f7e2732890000000000000000000000000000000000000000000000000000000081526004016112ff919061251d565b60405180910390fd5b80915050919050565b60006004600083815260200190815260200160002060009054906101000a900473ffffffffffffffffffffffffffffffffffffffff169050919050565b600033905090565b6113638383836001611cf7565b505050565b60008061137484611cba565b9050600073ffffffffffffffffffffffffffffffffffffffff168373ffffffffffffffffffffffffffffffffffffffff16146113b6576113b5818486611ebc565b5b600073ffffffffffffffffffffffffffffffffffffffff168173ffffffffffffffffffffffffffffffffffffffff1614611447576113f8600085600080611cf7565b6001600360008373ffffffffffffffffffffffffffffffffffffffff1673ffffffffffffffffffffffffffffffffffffffff168152602001908152602001600020600082825403925050819055505b600073ffffffffffffffffffffffffffffffffffffffff168573ffffffffffffffffffffffffffffffffffffffff16146114ca576001600360008773ffffffffffffffffffffffffffffffffffffffff1673ffffffffffffffffffffffffffffffffffffffff168152602001908152602001600020600082825401925050819055505b846002600086815260200190815260200160002060006101000a81548173ffffffffffffffffffffffffffffffffffffffff021916908373ffffffffffffffffffffffffffffffffffffffff160217905550838573ffffffffffffffffffffffffffffffffffffffff168273ffffffffffffffffffffffffffffffffffffffff167fddf252ad1be2c89b69c2b068fc378daa952ba7f163c4a11628f55a4df523b3ef60405160405180910390a4809150509392505050565b60006115916000836000611368565b9050600073ffffffffffffffffffffffffffffffffffffffff168173ffffffffffffffffffffffffffffffffffffffff160361160457816040517f7e2732890000000000000000000000000000000000000000000000000000000081526004016115fb919061251d565b60405180910390fd5b5050565b61161061134e565b73ffffffffffffffffffffffffffffffffffffffff1661162e610c1c565b73ffffffffffffffffffffffffffffffffffffffff161461168d5761165161134e565b6040517f118cdaa70000000000000000000000000000000000000000000000000000000081526004016116849190612487565b60405180910390fd5b565b6000600760009054906101000a900473ffffffffffffffffffffffffffffffffffffffff16905081600760006101000a81548173ffffffffffffffffffffffffffffffffffffffff021916908373ffffffffffffffffffffffffffffffffffffffff1602179055508173ffffffffffffffffffffffffffffffffffffffff168173ffffffffffffffffffffffffffffffffffffffff167f8be0079c531659141344cd1fd0a4f28419497f9722a3daafe3b4186f6b6457e060405160405180910390a35050565b600073ffffffffffffffffffffffffffffffffffffffff168273ffffffffffffffffffffffffffffffffffffffff16036117c657816040517f5b08ba180000000000000000000000000000000000000000000000000000000081526004016117bd9190612487565b60405180910390fd5b80600560008573ffffffffffffffffffffffffffffffffffffffff1673ffffffffffffffffffffffffffffffffffffffff16815260200190815260200160002060008473ffffffffffffffffffffffffffffffffffffffff1673ffffffffffffffffffffffffffffffffffffffff16815260200190815260200160002060006101000a81548160ff0219169083151502179055508173ffffffffffffffffffffffffffffffffffffffff168373ffffffffffffffffffffffffffffffffffffffff167f17307eab39ab6107e8899845ad3d59bd9653f200f220920489ca2b5937696c31836040516118b79190612316565b60405180910390a3505050565b60008373ffffffffffffffffffffffffffffffffffffffff163b1115611a75578273ffffffffffffffffffffffffffffffffffffffff1663150b7a0261190861134e565b8685856040518563ffffffff1660e01b815260040161192a9493929190612e72565b6020604051808303816000875af192505050801561196657506040513d601f19601f820116820180604052508101906119639190612ed3565b60015b6119ea573d8060008114611996576040519150601f19603f3d011682016040523d82523d6000602084013e61199b565b606091505b5060008151036119e257836040517f64a0ae920000000000000000000000000000000000000000000000000000000081526004016119d99190612487565b60405180910390fd5b805181602001fd5b63150b7a0260e01b7bffffffffffffffffffffffffffffffffffffffffffffffffffffffff1916817bffffffffffffffffffffffffffffffffffffffffffffffffffffffff191614611a7357836040517f64a0ae92000000000000000000000000000000000000000000000000000000008152600401611a6a9190612487565b60405180910390fd5b505b50505050565b606060405180602001604052806000815250905090565b6060611a9d82611289565b506000611aa8611a7b565b90506000815111611ac85760405180602001604052806000815250611af3565b80611ad284611f80565b604051602001611ae3929190612d45565b6040516020818303038152906040525b915050919050565b600073ffffffffffffffffffffffffffffffffffffffff168273ffffffffffffffffffffffffffffffffffffffff1603611b6d5760006040517f64a0ae92000000000000000000000000000000000000000000000000000000008152600401611b649190612487565b60405180910390fd5b6000611b7b83836000611368565b9050600073ffffffffffffffffffffffffffffffffffffffff168173ffffffffffffffffffffffffffffffffffffffff1614611bef5760006040517f73c6ac6e000000000000000000000000000000000000000000000000000000008152600401611be69190612487565b60405180910390fd5b505050565b80600660008481526020019081526020016000209081611c1491906130ac565b507ff8e1a15aba9398e019f0b49df1a4fde98ee17ae345cb5f6b5e2c27f5033e8ce782604051611c44919061251d565b60405180910390a15050565b60007f01ffc9a7000000000000000000000000000000000000000000000000000000007bffffffffffffffffffffffffffffffffffffffffffffffffffffffff1916827bffffffffffffffffffffffffffffffffffffffffffffffffffffffff1916149050919050565b60006002600083815260200190815260200160002060009054906101000a900473ffffffffffffffffffffffffffffffffffffffff169050919050565b8080611d305750600073ffffffffffffffffffffffffffffffffffffffff168273ffffffffffffffffffffffffffffffffffffffff1614155b15611e64576000611d4084611289565b9050600073ffffffffffffffffffffffffffffffffffffffff168373ffffffffffffffffffffffffffffffffffffffff1614158015611dab57508273ffffffffffffffffffffffffffffffffffffffff168173ffffffffffffffffffffffffffffffffffffffff1614155b8015611dbe5750611dbc818461108d565b155b15611e0057826040517fa9fbf51f000000000000000000000000000000000000000000000000000000008152600401611df79190612487565b60405180910390fd5b8115611e6257838573ffffffffffffffffffffffffffffffffffffffff168273ffffffffffffffffffffffffffffffffffffffff167f8c5be1e5ebec7d5bd14f71427d1e84f3dd0314c0f7b2291e5b200ac8c7c3b92560405160405180910390a45b505b836004600085815260200190815260200160002060006101000a81548173ffffffffffffffffffffffffffffffffffffffff021916908373ffffffffffffffffffffffffffffffffffffffff16021790555050505050565b611ec783838361204e565b611f7b57600073ffffffffffffffffffffffffffffffffffffffff168373ffffffffffffffffffffffffffffffffffffffff1603611f3c57806040517f7e273289000000000000000000000000000000000000000000000000000000008152600401611f33919061251d565b60405180910390fd5b81816040517f177e802f000000000000000000000000000000000000000000000000000000008152600401611f7292919061317e565b60405180910390fd5b505050565b606060006001611f8f8461210f565b01905060008167ffffffffffffffff811115611fae57611fad61262e565b5b6040519080825280601f01601f191660200182016040528015611fe05781602001600182028036833780820191505090505b509050600082602001820190505b600115612043578080600190039150507f3031323334353637383961626364656600000000000000000000000000000000600a86061a8153600a858161203757612036612ca9565b5b04945060008503611fee575b819350505050919050565b60008073ffffffffffffffffffffffffffffffffffffffff168373ffffffffffffffffffffffffffffffffffffffff161415801561210657508273ffffffffffffffffffffffffffffffffffffffff168473ffffffffffffffffffffffffffffffffffffffff1614806120c757506120c6848461108d565b5b8061210557508273ffffffffffffffffffffffffffffffffffffffff166120ed83611311565b73ffffffffffffffffffffffffffffffffffffffff16145b5b90509392505050565b600080600090507a184f03e93ff9f4daa797ed6e38ed64bf6a1f010000000000000000831061216d577a184f03e93ff9f4daa797ed6e38ed64bf6a1f010000000000000000838161216357612162612ca9565b5b0492506040810190505b6d04ee2d6d415b85acef810000000083106121aa576d04ee2d6d415b85acef810000000083816121a05761219f612ca9565b5b0492506020810190505b662386f26fc1000083106121d957662386f26fc1000083816121cf576121ce612ca9565b5b0492506010810190505b6305f5e1008310612202576305f5e10083816121f8576121f7612ca9565b5b0492506008810190505b612710831061222757612710838161221d5761221c612ca9565b5b0492506004810190505b6064831061224a57606483816122405761223f612ca9565b5b0492506002810190505b600a8310612259576001810190505b80915050919050565b6000604051905090565b600080fd5b600080fd5b60007fffffffff0000000000000000000000000000000000000000000000000000000082169050919050565b6122ab81612276565b81146122b657600080fd5b50565b6000813590506122c8816122a2565b92915050565b6000602082840312156122e4576122e361226c565b5b60006122f2848285016122b9565b91505092915050565b60008115159050919050565b612310816122fb565b82525050565b600060208201905061232b6000830184612307565b92915050565b600081519050919050565b600082825260208201905092915050565b60005b8381101561236b578082015181840152602081019050612350565b60008484015250505050565b6000601f19601f8301169050919050565b600061239382612331565b61239d818561233c565b93506123ad81856020860161234d565b6123b681612377565b840191505092915050565b600060208201905081810360008301526123db8184612388565b905092915050565b6000819050919050565b6123f6816123e3565b811461240157600080fd5b50565b600081359050612413816123ed565b92915050565b60006020828403121561242f5761242e61226c565b5b600061243d84828501612404565b91505092915050565b600073ffffffffffffffffffffffffffffffffffffffff82169050919050565b600061247182612446565b9050919050565b61248181612466565b82525050565b600060208201905061249c6000830184612478565b92915050565b6124ab81612466565b81146124b657600080fd5b50565b6000813590506124c8816124a2565b92915050565b600080604083850312156124e5576124e461226c565b5b60006124f3858286016124b9565b925050602061250485828601612404565b9150509250929050565b612517816123e3565b82525050565b6000602082019050612532600083018461250e565b92915050565b6000806000606084860312156125515761255061226c565b5b600061255f868287016124b9565b9350506020612570868287016124b9565b925050604061258186828701612404565b9150509250925092565b6000602082840312156125a1576125a061226c565b5b60006125af848285016124b9565b91505092915050565b6125c1816122fb565b81146125cc57600080fd5b50565b6000813590506125de816125b8565b92915050565b600080604083850312156125fb576125fa61226c565b5b6000612609858286016124b9565b925050602061261a858286016125cf565b9150509250929050565b600080fd5b600080fd5b7f4e487b7100000000000000000000000000000000000000000000000000000000600052604160045260246000fd5b61266682612377565b810181811067ffffffffffffffff821117156126855761268461262e565b5b80604052505050565b6000612698612262565b90506126a4828261265d565b919050565b600067ffffffffffffffff8211156126c4576126c361262e565b5b6126cd82612377565b9050602081019050919050565b82818337600083830152505050565b60006126fc6126f7846126a9565b61268e565b90508281526020810184848401111561271857612717612629565b5b6127238482856126da565b509392505050565b600082601f8301126127405761273f612624565b5b81356127508482602086016126e9565b91505092915050565b600080600080608085870312156127735761277261226c565b5b6000612781878288016124b9565b9450506020612792878288016124b9565b93505060406127a387828801612404565b925050606085013567ffffffffffffffff8111156127c4576127c3612271565b5b6127d08782880161272b565b91505092959194509250565b600080fd5b600080fd5b60008083601f8401126127fc576127fb612624565b5b8235905067ffffffffffffffff811115612819576128186127dc565b5b602083019150836001820283011115612835576128346127e1565b5b9250929050565b600080602083850312156128535761285261226c565b5b600083013567ffffffffffffffff81111561287157612870612271565b5b61287d858286016127e6565b92509250509250929050565b600080604083850312156128a05761289f61226c565b5b60006128ae858286016124b9565b92505060206128bf858286016124b9565b9150509250929050565b7f4e487b7100000000000000000000000000000000000000000000000000000000600052602260045260246000fd5b6000600282049050600182168061291057607f821691505b602082108103612923576129226128c9565b5b50919050565b600060608201905061293e6000830186612478565b61294b602083018561250e565b6129586040830184612478565b949350505050565b7f536f72727920646f6e2774206861766520656e6f75676820746f6b656e732c5060008201527f6c65617365206d696e7400000000000000000000000000000000000000000000602082015250565b60006129bc602a8361233c565b91506129c782612960565b604082019050919050565b600060208201905081810360008301526129eb816129af565b9050919050565b7f4e487b7100000000000000000000000000000000000000000000000000000000600052601160045260246000fd5b6000612a2c826123e3565b9150612a37836123e3565b9250828203905081811115612a4f57612a4e6129f2565b5b92915050565b7f4e487b7100000000000000000000000000000000000000000000000000000000600052603260045260246000fd5b6000612a8f826123e3565b915060008203612aa257612aa16129f2565b5b600182039050919050565b7f4e487b7100000000000000000000000000000000000000000000000000000000600052603160045260246000fd5b60008160011c9050919050565b6000808291508390505b6001851115612b3357808604811115612b0f57612b0e6129f2565b5b6001851615612b1e5780820291505b8081029050612b2c85612adc565b9450612af3565b94509492505050565b600082612b4c5760019050612c08565b81612b5a5760009050612c08565b8160018114612b705760028114612b7a57612ba9565b6001915050612c08565b60ff841115612b8c57612b8b6129f2565b5b8360020a915084821115612ba357612ba26129f2565b5b50612c08565b5060208310610133831016604e8410600b8410161715612bde5782820a905083811115612bd957612bd86129f2565b5b612c08565b612beb8484846001612ae9565b92509050818404811115612c0257612c016129f2565b5b81810290505b9392505050565b600060ff82169050919050565b6000612c27826123e3565b9150612c3283612c0f565b9250612c5f7fffffffffffffffffffffffffffffffffffffffffffffffffffffffffffffffff8484612b3c565b905092915050565b6000612c72826123e3565b9150612c7d836123e3565b9250828202612c8b816123e3565b91508282048414831517612ca257612ca16129f2565b5b5092915050565b7f4e487b7100000000000000000000000000000000000000000000000000000000600052601260045260246000fd5b6000612ce3826123e3565b9150612cee836123e3565b925082612cfe57612cfd612ca9565b5b828204905092915050565b600081905092915050565b6000612d1f82612331565b612d298185612d09565b9350612d3981856020860161234d565b80840191505092915050565b6000612d518285612d14565b9150612d5d8284612d14565b91508190509392505050565b7f706c6561736520656e74657220636f727265637420616d6f756e740000000000600082015250565b6000612d9f601b8361233c565b9150612daa82612d69565b602082019050919050565b60006020820190508181036000830152612dce81612d92565b9050919050565b6000612de0826123e3565b91507fffffffffffffffffffffffffffffffffffffffffffffffffffffffffffffffff8203612e1257612e116129f2565b5b600182019050919050565b600081519050919050565b600082825260208201905092915050565b6000612e4482612e1d565b612e4e8185612e28565b9350612e5e81856020860161234d565b612e6781612377565b840191505092915050565b6000608082019050612e876000830187612478565b612e946020830186612478565b612ea1604083018561250e565b8181036060830152612eb38184612e39565b905095945050505050565b600081519050612ecd816122a2565b92915050565b600060208284031215612ee957612ee861226c565b5b6000612ef784828501612ebe565b91505092915050565b60008190508160005260206000209050919050565b60006020601f8301049050919050565b600082821b905092915050565b600060088302612f627fffffffffffffffffffffffffffffffffffffffffffffffffffffffffffffffff82612f25565b612f6c8683612f25565b95508019841693508086168417925050509392505050565b6000819050919050565b6000612fa9612fa4612f9f846123e3565b612f84565b6123e3565b9050919050565b6000819050919050565b612fc383612f8e565b612fd7612fcf82612fb0565b848454612f32565b825550505050565b600090565b612fec612fdf565b612ff7818484612fba565b505050565b5b8181101561301b57613010600082612fe4565b600181019050612ffd565b5050565b601f8211156130605761303181612f00565b61303a84612f15565b81016020851015613049578190505b61305d61305585612f15565b830182612ffc565b50505b505050565b600082821c905092915050565b600061308360001984600802613065565b1980831691505092915050565b600061309c8383613072565b9150826002028217905092915050565b6130b582612331565b67ffffffffffffffff8111156130ce576130cd61262e565b5b6130d882546128f8565b6130e382828561301f565b600060209050601f8311600181146131165760008415613104578287015190505b61310e8582613090565b865550613176565b601f19841661312486612f00565b60005b8281101561314c57848901518255600182019150602085019450602081019050613127565b868310156131695784890151613165601f891682613072565b8355505b6001600288020188555050505b505050505050565b60006040820190506131936000830185612478565b6131a0602083018461250e565b939250505056fea2646970667358221220f26d7a716cd14745c285a572b974f4d6243bb82639ec7430fc0f750051cdb99c64736f6c63430008180033",
  "linkReferences": {},
  "deployedLinkReferences": {}
}